{
  "_format": "hh-sol-artifact-1",
  "contractName": "WenDAOMarket",
  "sourceName": "contracts/WenDAOMarket.sol",
  "abi": [
    {
      "inputs": [
        {
          "internalType": "address",
          "name": "_usdtToken",
          "type": "address"
        }
      ],
      "stateMutability": "nonpayable",
      "type": "constructor"
    },
    {
      "inputs": [
        {
          "internalType": "address",
          "name": "owner",
          "type": "address"
        }
      ],
      "name": "OwnableInvalidOwner",
      "type": "error"
    },
    {
      "inputs": [
        {
          "internalType": "address",
          "name": "account",
          "type": "address"
        }
      ],
      "name": "OwnableUnauthorizedAccount",
      "type": "error"
    },
    {
      "inputs": [],
      "name": "ReentrancyGuardReentrantCall",
      "type": "error"
    },
    {
      "inputs": [
        {
          "internalType": "address",
          "name": "token",
          "type": "address"
        }
      ],
      "name": "SafeERC20FailedOperation",
      "type": "error"
    },
    {
      "anonymous": false,
      "inputs": [
        {
          "indexed": true,
          "internalType": "uint256",
          "name": "marketId",
          "type": "uint256"
        },
        {
          "indexed": true,
          "internalType": "address",
          "name": "user",
          "type": "address"
        },
        {
          "indexed": false,
          "internalType": "uint8",
          "name": "direction",
          "type": "uint8"
        },
        {
          "indexed": false,
          "internalType": "uint256",
          "name": "amount",
          "type": "uint256"
        }
      ],
      "name": "BetPlaced",
      "type": "event"
    },
    {
      "anonymous": false,
      "inputs": [
        {
          "indexed": true,
          "internalType": "address",
          "name": "owner",
          "type": "address"
        },
        {
          "indexed": false,
          "internalType": "uint256",
          "name": "amount",
          "type": "uint256"
        }
      ],
      "name": "FeesWithdrawn",
      "type": "event"
    },
    {
      "anonymous": false,
      "inputs": [
        {
          "indexed": true,
          "internalType": "uint256",
          "name": "id",
          "type": "uint256"
        },
        {
          "indexed": false,
          "internalType": "string",
          "name": "question",
          "type": "string"
        },
        {
          "indexed": false,
          "internalType": "uint256",
          "name": "endTime",
          "type": "uint256"
        }
      ],
      "name": "MarketCreated",
      "type": "event"
    },
    {
      "anonymous": false,
      "inputs": [
        {
          "indexed": true,
          "internalType": "uint256",
          "name": "marketId",
          "type": "uint256"
        },
        {
          "indexed": false,
          "internalType": "enum WenDAOMarket.Outcome",
          "name": "outcome",
          "type": "uint8"
        },
        {
          "indexed": false,
          "internalType": "uint256",
          "name": "rewardPool",
          "type": "uint256"
        },
        {
          "indexed": false,
          "internalType": "uint256",
          "name": "fee",
          "type": "uint256"
        }
      ],
      "name": "MarketResolved",
      "type": "event"
    },
    {
      "anonymous": false,
      "inputs": [
        {
          "indexed": true,
          "internalType": "address",
          "name": "previousOwner",
          "type": "address"
        },
        {
          "indexed": true,
          "internalType": "address",
          "name": "newOwner",
          "type": "address"
        }
      ],
      "name": "OwnershipTransferred",
      "type": "event"
    },
    {
      "anonymous": false,
      "inputs": [
        {
          "indexed": true,
          "internalType": "uint256",
          "name": "marketId",
          "type": "uint256"
        },
        {
          "indexed": true,
          "internalType": "address",
          "name": "user",
          "type": "address"
        },
        {
          "indexed": false,
          "internalType": "uint256",
          "name": "amount",
          "type": "uint256"
        }
      ],
      "name": "WinningsClaimed",
      "type": "event"
    },
    {
      "inputs": [],
      "name": "FEE_BPS",
      "outputs": [
        {
          "internalType": "uint256",
          "name": "",
          "type": "uint256"
        }
      ],
      "stateMutability": "view",
      "type": "function"
    },
    {
      "inputs": [],
      "name": "accumulatedFees",
      "outputs": [
        {
          "internalType": "uint256",
          "name": "",
          "type": "uint256"
        }
      ],
      "stateMutability": "view",
      "type": "function"
    },
    {
      "inputs": [
        {
          "internalType": "uint256",
          "name": "",
          "type": "uint256"
        },
        {
          "internalType": "address",
          "name": "",
          "type": "address"
        },
        {
          "internalType": "uint8",
          "name": "",
          "type": "uint8"
        }
      ],
      "name": "bets",
      "outputs": [
        {
          "internalType": "uint256",
          "name": "",
          "type": "uint256"
        }
      ],
      "stateMutability": "view",
      "type": "function"
    },
    {
      "inputs": [
        {
          "internalType": "uint256",
          "name": "_marketId",
          "type": "uint256"
        }
      ],
      "name": "claimWinnings",
      "outputs": [],
      "stateMutability": "nonpayable",
      "type": "function"
    },
    {
      "inputs": [
        {
          "internalType": "string",
          "name": "_question",
          "type": "string"
        },
        {
          "internalType": "uint256",
          "name": "_duration",
          "type": "uint256"
        }
      ],
      "name": "createMarket",
      "outputs": [],
      "stateMutability": "nonpayable",
      "type": "function"
    },
    {
      "inputs": [
        {
          "internalType": "uint256",
          "name": "_marketId",
          "type": "uint256"
        },
        {
          "internalType": "address",
          "name": "_user",
          "type": "address"
        }
      ],
      "name": "getBet",
      "outputs": [
        {
          "internalType": "uint256",
          "name": "yesAmount",
          "type": "uint256"
        },
        {
          "internalType": "uint256",
          "name": "noAmount",
          "type": "uint256"
        }
      ],
      "stateMutability": "view",
      "type": "function"
    },
    {
      "inputs": [
        {
          "internalType": "uint256",
          "name": "",
          "type": "uint256"
        },
        {
          "internalType": "address",
          "name": "",
          "type": "address"
        }
      ],
      "name": "hasClaimed",
      "outputs": [
        {
          "internalType": "bool",
          "name": "",
          "type": "bool"
        }
      ],
      "stateMutability": "view",
      "type": "function"
    },
    {
      "inputs": [
        {
          "internalType": "uint256",
          "name": "",
          "type": "uint256"
        }
      ],
      "name": "markets",
      "outputs": [
        {
          "internalType": "uint256",
          "name": "id",
          "type": "uint256"
        },
        {
          "internalType": "string",
          "name": "question",
          "type": "string"
        },
        {
          "internalType": "uint256",
          "name": "endTime",
          "type": "uint256"
        },
        {
          "internalType": "enum WenDAOMarket.Outcome",
          "name": "outcome",
          "type": "uint8"
        },
        {
          "internalType": "uint256",
          "name": "totalYes",
          "type": "uint256"
        },
        {
          "internalType": "uint256",
          "name": "totalNo",
          "type": "uint256"
        },
        {
          "internalType": "uint256",
          "name": "rewardPool",
          "type": "uint256"
        },
        {
          "internalType": "bool",
          "name": "resolved",
          "type": "bool"
        }
      ],
      "stateMutability": "view",
      "type": "function"
    },
    {
      "inputs": [],
      "name": "nextMarketId",
      "outputs": [
        {
          "internalType": "uint256",
          "name": "",
          "type": "uint256"
        }
      ],
      "stateMutability": "view",
      "type": "function"
    },
    {
      "inputs": [],
      "name": "owner",
      "outputs": [
        {
          "internalType": "address",
          "name": "",
          "type": "address"
        }
      ],
      "stateMutability": "view",
      "type": "function"
    },
    {
      "inputs": [
        {
          "internalType": "uint256",
          "name": "_marketId",
          "type": "uint256"
        },
        {
          "internalType": "uint8",
          "name": "_direction",
          "type": "uint8"
        },
        {
          "internalType": "uint256",
          "name": "_amount",
          "type": "uint256"
        }
      ],
      "name": "placeBet",
      "outputs": [],
      "stateMutability": "nonpayable",
      "type": "function"
    },
    {
      "inputs": [],
      "name": "renounceOwnership",
      "outputs": [],
      "stateMutability": "nonpayable",
      "type": "function"
    },
    {
      "inputs": [
        {
          "internalType": "uint256",
          "name": "_marketId",
          "type": "uint256"
        },
        {
          "internalType": "uint8",
          "name": "_outcome",
          "type": "uint8"
        }
      ],
      "name": "resolveMarket",
      "outputs": [],
      "stateMutability": "nonpayable",
      "type": "function"
    },
    {
      "inputs": [
        {
          "internalType": "address",
          "name": "newOwner",
          "type": "address"
        }
      ],
      "name": "transferOwnership",
      "outputs": [],
      "stateMutability": "nonpayable",
      "type": "function"
    },
    {
      "inputs": [],
      "name": "usdtToken",
      "outputs": [
        {
          "internalType": "contract IERC20",
          "name": "",
          "type": "address"
        }
      ],
      "stateMutability": "view",
      "type": "function"
    },
    {
      "inputs": [],
      "name": "withdrawFees",
      "outputs": [],
      "stateMutability": "nonpayable",
      "type": "function"
    }
  ],
  "bytecode": "0x60a06040523480156200001157600080fd5b50604051620027ec380380620027ec83398181016040528101906200003791906200022f565b33600073ffffffffffffffffffffffffffffffffffffffff168173ffffffffffffffffffffffffffffffffffffffff1603620000ad5760006040517f1e4fbdf7000000000000000000000000000000000000000000000000000000008152600401620000a4919062000272565b60405180910390fd5b620000be816200010160201b60201c565b50600180819055508073ffffffffffffffffffffffffffffffffffffffff1660808173ffffffffffffffffffffffffffffffffffffffff1681525050506200028f565b60008060009054906101000a900473ffffffffffffffffffffffffffffffffffffffff169050816000806101000a81548173ffffffffffffffffffffffffffffffffffffffff021916908373ffffffffffffffffffffffffffffffffffffffff1602179055508173ffffffffffffffffffffffffffffffffffffffff168173ffffffffffffffffffffffffffffffffffffffff167f8be0079c531659141344cd1fd0a4f28419497f9722a3daafe3b4186f6b6457e060405160405180910390a35050565b600080fd5b600073ffffffffffffffffffffffffffffffffffffffff82169050919050565b6000620001f782620001ca565b9050919050565b6200020981620001ea565b81146200021557600080fd5b50565b6000815190506200022981620001fe565b92915050565b600060208284031215620002485762000247620001c5565b5b6000620002588482850162000218565b91505092915050565b6200026c81620001ea565b82525050565b600060208201905062000289600083018462000261565b92915050565b60805161252c620002c06000396000818161036a015281816106bb015281816109ba0152610c21015261252c6000f3fe608060405234801561001057600080fd5b50600436106101005760003560e01c80638f99230e11610097578063da866c4811610066578063da866c481461027e578063df55406e1461029a578063e0950ddf146102b6578063f2fde38b146102e757610100565b80638f99230e146101db578063a98ad46c1461020b578063b1283e7714610229578063bf333f2c1461026057610100565b8063715018a6116100d3578063715018a614610167578063873f6f9e14610171578063883c84c1146101a15780638da5cb5b146101bd57610100565b8063406ef2ef14610105578063476343ee14610123578063587f5ed71461012d578063677bd9ff1461014b575b600080fd5b61010d610303565b60405161011a919061146c565b60405180910390f35b61012b610309565b005b6101356103ff565b604051610142919061146c565b60405180910390f35b610165600480360381019061016091906114c7565b610405565b005b61016f61075e565b005b61018b60048036038101906101869190611552565b610772565b60405161019891906115ad565b60405180910390f35b6101bb60048036038101906101b6919061170e565b6107a1565b005b6101c561095d565b6040516101d29190611779565b60405180910390f35b6101f560048036038101906101f091906117cd565b610986565b604051610202919061146c565b60405180910390f35b6102136109b8565b604051610220919061187f565b60405180910390f35b610243600480360381019061023e91906114c7565b6109dc565b604051610257989796959493929190611990565b60405180910390f35b610268610ac6565b604051610275919061146c565b60405180910390f35b61029860048036038101906102939190611a15565b610acb565b005b6102b460048036038101906102af9190611a68565b610d8a565b005b6102d060048036038101906102cb9190611552565b610fae565b6040516102de929190611aa8565b60405180910390f35b61030160048036038101906102fc9190611ad1565b611088565b005b60035481565b61031161110e565b600060025490506000811161035b576040517f08c379a000000000000000000000000000000000000000000000000000000000815260040161035290611b4a565b60405180910390fd5b60006002819055506103ae33827f000000000000000000000000000000000000000000000000000000000000000073ffffffffffffffffffffffffffffffffffffffff166111959092919063ffffffff16565b3373ffffffffffffffffffffffffffffffffffffffff167fc0819c13be868895eb93e40eaceb96de976442fa1d404e5c55f14bb65a8c489a826040516103f4919061146c565b60405180910390a250565b60025481565b61040d611214565b60006004600083815260200190815260200160002090508060070160009054906101000a900460ff16610475576040517f08c379a000000000000000000000000000000000000000000000000000000000815260040161046c90611bb6565b60405180910390fd5b6006600083815260200190815260200160002060003373ffffffffffffffffffffffffffffffffffffffff1673ffffffffffffffffffffffffffffffffffffffff16815260200190815260200160002060009054906101000a900460ff1615610513576040517f08c379a000000000000000000000000000000000000000000000000000000000815260040161050a90611c22565b60405180910390fd5b60006001600281111561052957610528611919565b5b8260030160009054906101000a900460ff16600281111561054d5761054c611919565b5b1461055957600261055c565b60015b905060006005600085815260200190815260200160002060003373ffffffffffffffffffffffffffffffffffffffff1673ffffffffffffffffffffffffffffffffffffffff16815260200190815260200160002060008360ff1660ff1681526020019081526020016000205490506000811161060d576040517f08c379a000000000000000000000000000000000000000000000000000000000815260040161060490611c8e565b60405180910390fd5b600060018360ff161461062457836005015461062a565b83600401545b905060008185600601548461063f9190611cdd565b6106499190611d4e565b905060016006600088815260200190815260200160002060003373ffffffffffffffffffffffffffffffffffffffff1673ffffffffffffffffffffffffffffffffffffffff16815260200190815260200160002060006101000a81548160ff0219169083151502179055506106ff33827f000000000000000000000000000000000000000000000000000000000000000073ffffffffffffffffffffffffffffffffffffffff166111959092919063ffffffff16565b3373ffffffffffffffffffffffffffffffffffffffff16867f5380cf6fe903b40c6d5a9e0dfbca2f3a423f0a21520b4d5947ed5169bdba946d83604051610746919061146c565b60405180910390a3505050505061075b61125a565b50565b61076661110e565b6107706000611263565b565b60066020528160005260406000206020528060005260406000206000915091509054906101000a900460ff1681565b6107a961110e565b600081116107ec576040517f08c379a00000000000000000000000000000000000000000000000000000000081526004016107e390611dcb565b60405180910390fd5b60006003600081548092919061080190611deb565b919050559050604051806101000160405280828152602001848152602001834261082b9190611e33565b81526020016000600281111561084457610843611919565b5b815260200160008152602001600081526020016000815260200160001515815250600460008381526020019081526020016000206000820151816000015560208201518160010190816108979190612069565b506040820151816002015560608201518160030160006101000a81548160ff021916908360028111156108cd576108cc611919565b5b02179055506080820151816004015560a0820151816005015560c0820151816006015560e08201518160070160006101000a81548160ff021916908315150217905550905050807f2d1e9ad45dbe8e898e0374deebf2a661b2ae7c1855d2a29507d584c35d287c758484426109429190611e33565b60405161095092919061213b565b60405180910390a2505050565b60008060009054906101000a900473ffffffffffffffffffffffffffffffffffffffff16905090565b600560205282600052604060002060205281600052604060002060205280600052604060002060009250925050505481565b7f000000000000000000000000000000000000000000000000000000000000000081565b6004602052806000526040600020600091509050806000015490806001018054610a0590611e96565b80601f0160208091040260200160405190810160405280929190818152602001828054610a3190611e96565b8015610a7e5780601f10610a5357610100808354040283529160200191610a7e565b820191906000526020600020905b815481529060010190602001808311610a6157829003601f168201915b5050505050908060020154908060030160009054906101000a900460ff16908060040154908060050154908060060154908060070160009054906101000a900460ff16905088565b606481565b610ad3611214565b600060046000858152602001908152602001600020905042816002015411610b30576040517f08c379a0000000000000000000000000000000000000000000000000000000008152600401610b27906121b7565b60405180910390fd5b8060070160009054906101000a900460ff1615610b82576040517f08c379a0000000000000000000000000000000000000000000000000000000008152600401610b7990612223565b60405180910390fd5b60018360ff161480610b97575060028360ff16145b610bd6576040517f08c379a0000000000000000000000000000000000000000000000000000000008152600401610bcd9061228f565b60405180910390fd5b60008211610c19576040517f08c379a0000000000000000000000000000000000000000000000000000000008152600401610c10906122fb565b60405180910390fd5b610c663330847f000000000000000000000000000000000000000000000000000000000000000073ffffffffffffffffffffffffffffffffffffffff16611327909392919063ffffffff16565b816005600086815260200190815260200160002060003373ffffffffffffffffffffffffffffffffffffffff1673ffffffffffffffffffffffffffffffffffffffff16815260200190815260200160002060008560ff1660ff1681526020019081526020016000206000828254610cdd9190611e33565b9250508190555060018360ff1603610d0f5781816004016000828254610d039190611e33565b92505081905550610d2b565b81816005016000828254610d239190611e33565b925050819055505b3373ffffffffffffffffffffffffffffffffffffffff16847f4f1eed5e863a822b0f9eb960dfdab2cc5a99beec4b191f2a7a9c7e28e5a155248585604051610d7492919061232a565b60405180910390a350610d8561125a565b505050565b610d9261110e565b60006004600084815260200190815260200160002090508060070160009054906101000a900460ff1615610dfb576040517f08c379a0000000000000000000000000000000000000000000000000000000008152600401610df290612223565b60405180910390fd5b8060020154421015610e42576040517f08c379a0000000000000000000000000000000000000000000000000000000008152600401610e399061239f565b60405180910390fd5b60018260ff161480610e57575060028260ff16145b610e96576040517f08c379a0000000000000000000000000000000000000000000000000000000008152600401610e8d9061240b565b60405180910390fd5b60018260ff1614610ea8576002610eab565b60015b8160030160006101000a81548160ff02191690836002811115610ed157610ed0611919565b5b021790555060018160070160006101000a81548160ff021916908315150217905550600081600501548260040154610f099190611e33565b90506000612710606483610f1d9190611cdd565b610f279190611d4e565b90508060026000828254610f3b9190611e33565b925050819055508082610f4e919061242b565b8360060181905550847f503d167e0856e2f40aaac2dac6550f9543efb837691cc189cde53b0172e4f32b8460030160009054906101000a900460ff16856006015484604051610f9f9392919061245f565b60405180910390a25050505050565b6000806005600085815260200190815260200160002060008473ffffffffffffffffffffffffffffffffffffffff1673ffffffffffffffffffffffffffffffffffffffff1681526020019081526020016000206000600160ff1681526020019081526020016000205491506005600085815260200190815260200160002060008473ffffffffffffffffffffffffffffffffffffffff1673ffffffffffffffffffffffffffffffffffffffff1681526020019081526020016000206000600260ff1681526020019081526020016000205490509250929050565b61109061110e565b600073ffffffffffffffffffffffffffffffffffffffff168173ffffffffffffffffffffffffffffffffffffffff16036111025760006040517f1e4fbdf70000000000000000000000000000000000000000000000000000000081526004016110f99190611779565b60405180910390fd5b61110b81611263565b50565b6111166113a9565b73ffffffffffffffffffffffffffffffffffffffff1661113461095d565b73ffffffffffffffffffffffffffffffffffffffff1614611193576111576113a9565b6040517f118cdaa700000000000000000000000000000000000000000000000000000000815260040161118a9190611779565b60405180910390fd5b565b61120f838473ffffffffffffffffffffffffffffffffffffffff1663a9059cbb85856040516024016111c8929190612496565b604051602081830303815290604052915060e01b6020820180517bffffffffffffffffffffffffffffffffffffffffffffffffffffffff83818316178352505050506113b1565b505050565b600260015403611250576040517f3ee5aeb500000000000000000000000000000000000000000000000000000000815260040160405180910390fd5b6002600181905550565b60018081905550565b60008060009054906101000a900473ffffffffffffffffffffffffffffffffffffffff169050816000806101000a81548173ffffffffffffffffffffffffffffffffffffffff021916908373ffffffffffffffffffffffffffffffffffffffff1602179055508173ffffffffffffffffffffffffffffffffffffffff168173ffffffffffffffffffffffffffffffffffffffff167f8be0079c531659141344cd1fd0a4f28419497f9722a3daafe3b4186f6b6457e060405160405180910390a35050565b6113a3848573ffffffffffffffffffffffffffffffffffffffff166323b872dd86868660405160240161135c939291906124bf565b604051602081830303815290604052915060e01b6020820180517bffffffffffffffffffffffffffffffffffffffffffffffffffffffff83818316178352505050506113b1565b50505050565b600033905090565b600080602060008451602086016000885af1806113d4576040513d6000823e3d81fd5b3d9250600051915050600082146113ef57600181141561140b565b60008473ffffffffffffffffffffffffffffffffffffffff163b145b1561144d57836040517f5274afe70000000000000000000000000000000000000000000000000000000081526004016114449190611779565b60405180910390fd5b50505050565b6000819050919050565b61146681611453565b82525050565b6000602082019050611481600083018461145d565b92915050565b6000604051905090565b600080fd5b600080fd5b6114a481611453565b81146114af57600080fd5b50565b6000813590506114c18161149b565b92915050565b6000602082840312156114dd576114dc611491565b5b60006114eb848285016114b2565b91505092915050565b600073ffffffffffffffffffffffffffffffffffffffff82169050919050565b600061151f826114f4565b9050919050565b61152f81611514565b811461153a57600080fd5b50565b60008135905061154c81611526565b92915050565b6000806040838503121561156957611568611491565b5b6000611577858286016114b2565b92505060206115888582860161153d565b9150509250929050565b60008115159050919050565b6115a781611592565b82525050565b60006020820190506115c2600083018461159e565b92915050565b600080fd5b600080fd5b6000601f19601f8301169050919050565b7f4e487b7100000000000000000000000000000000000000000000000000000000600052604160045260246000fd5b61161b826115d2565b810181811067ffffffffffffffff8211171561163a576116396115e3565b5b80604052505050565b600061164d611487565b90506116598282611612565b919050565b600067ffffffffffffffff821115611679576116786115e3565b5b611682826115d2565b9050602081019050919050565b82818337600083830152505050565b60006116b16116ac8461165e565b611643565b9050828152602081018484840111156116cd576116cc6115cd565b5b6116d884828561168f565b509392505050565b600082601f8301126116f5576116f46115c8565b5b813561170584826020860161169e565b91505092915050565b6000806040838503121561172557611724611491565b5b600083013567ffffffffffffffff81111561174357611742611496565b5b61174f858286016116e0565b9250506020611760858286016114b2565b9150509250929050565b61177381611514565b82525050565b600060208201905061178e600083018461176a565b92915050565b600060ff82169050919050565b6117aa81611794565b81146117b557600080fd5b50565b6000813590506117c7816117a1565b92915050565b6000806000606084860312156117e6576117e5611491565b5b60006117f4868287016114b2565b93505060206118058682870161153d565b9250506040611816868287016117b8565b9150509250925092565b6000819050919050565b600061184561184061183b846114f4565b611820565b6114f4565b9050919050565b60006118578261182a565b9050919050565b60006118698261184c565b9050919050565b6118798161185e565b82525050565b60006020820190506118946000830184611870565b92915050565b600081519050919050565b600082825260208201905092915050565b60005b838110156118d45780820151818401526020810190506118b9565b60008484015250505050565b60006118eb8261189a565b6118f581856118a5565b93506119058185602086016118b6565b61190e816115d2565b840191505092915050565b7f4e487b7100000000000000000000000000000000000000000000000000000000600052602160045260246000fd5b6003811061195957611958611919565b5b50565b600081905061196a82611948565b919050565b600061197a8261195c565b9050919050565b61198a8161196f565b82525050565b6000610100820190506119a6600083018b61145d565b81810360208301526119b8818a6118e0565b90506119c7604083018961145d565b6119d46060830188611981565b6119e1608083018761145d565b6119ee60a083018661145d565b6119fb60c083018561145d565b611a0860e083018461159e565b9998505050505050505050565b600080600060608486031215611a2e57611a2d611491565b5b6000611a3c868287016114b2565b9350506020611a4d868287016117b8565b9250506040611a5e868287016114b2565b9150509250925092565b60008060408385031215611a7f57611a7e611491565b5b6000611a8d858286016114b2565b9250506020611a9e858286016117b8565b9150509250929050565b6000604082019050611abd600083018561145d565b611aca602083018461145d565b9392505050565b600060208284031215611ae757611ae6611491565b5b6000611af58482850161153d565b91505092915050565b7f4e6f206665657320746f20776974686472617700000000000000000000000000600082015250565b6000611b346013836118a5565b9150611b3f82611afe565b602082019050919050565b60006020820190508181036000830152611b6381611b27565b9050919050565b7f4d61726b6574206e6f74207265736f6c76656400000000000000000000000000600082015250565b6000611ba06013836118a5565b9150611bab82611b6a565b602082019050919050565b60006020820190508181036000830152611bcf81611b93565b9050919050565b7f416c726561647920636c61696d65640000000000000000000000000000000000600082015250565b6000611c0c600f836118a5565b9150611c1782611bd6565b602082019050919050565b60006020820190508181036000830152611c3b81611bff565b9050919050565b7f4e6f2077696e6e696e677320746f20636c61696d000000000000000000000000600082015250565b6000611c786014836118a5565b9150611c8382611c42565b602082019050919050565b60006020820190508181036000830152611ca781611c6b565b9050919050565b7f4e487b7100000000000000000000000000000000000000000000000000000000600052601160045260246000fd5b6000611ce882611453565b9150611cf383611453565b9250828202611d0181611453565b91508282048414831517611d1857611d17611cae565b5b5092915050565b7f4e487b7100000000000000000000000000000000000000000000000000000000600052601260045260246000fd5b6000611d5982611453565b9150611d6483611453565b925082611d7457611d73611d1f565b5b828204905092915050565b7f4475726174696f6e206d757374206265203e2030000000000000000000000000600082015250565b6000611db56014836118a5565b9150611dc082611d7f565b602082019050919050565b60006020820190508181036000830152611de481611da8565b9050919050565b6000611df682611453565b91507fffffffffffffffffffffffffffffffffffffffffffffffffffffffffffffffff8203611e2857611e27611cae565b5b600182019050919050565b6000611e3e82611453565b9150611e4983611453565b9250828201905080821115611e6157611e60611cae565b5b92915050565b7f4e487b7100000000000000000000000000000000000000000000000000000000600052602260045260246000fd5b60006002820490506001821680611eae57607f821691505b602082108103611ec157611ec0611e67565b5b50919050565b60008190508160005260206000209050919050565b60006020601f8301049050919050565b600082821b905092915050565b600060088302611f297fffffffffffffffffffffffffffffffffffffffffffffffffffffffffffffffff82611eec565b611f338683611eec565b95508019841693508086168417925050509392505050565b6000611f66611f61611f5c84611453565b611820565b611453565b9050919050565b6000819050919050565b611f8083611f4b565b611f94611f8c82611f6d565b848454611ef9565b825550505050565b600090565b611fa9611f9c565b611fb4818484611f77565b505050565b5b81811015611fd857611fcd600082611fa1565b600181019050611fba565b5050565b601f82111561201d57611fee81611ec7565b611ff784611edc565b81016020851015612006578190505b61201a61201285611edc565b830182611fb9565b50505b505050565b600082821c905092915050565b600061204060001984600802612022565b1980831691505092915050565b6000612059838361202f565b9150826002028217905092915050565b6120728261189a565b67ffffffffffffffff81111561208b5761208a6115e3565b5b6120958254611e96565b6120a0828285611fdc565b600060209050601f8311600181146120d357600084156120c1578287015190505b6120cb858261204d565b865550612133565b601f1984166120e186611ec7565b60005b82811015612109578489015182556001820191506020850194506020810190506120e4565b868310156121265784890151612122601f89168261202f565b8355505b6001600288020188555050505b505050505050565b6000604082019050818103600083015261215581856118e0565b9050612164602083018461145d565b9392505050565b7f42657474696e6720706572696f6420656e646564000000000000000000000000600082015250565b60006121a16014836118a5565b91506121ac8261216b565b602082019050919050565b600060208201905081810360008301526121d081612194565b9050919050565b7f4d61726b657420616c7265616479207265736f6c766564000000000000000000600082015250565b600061220d6017836118a5565b9150612218826121d7565b602082019050919050565b6000602082019050818103600083015261223c81612200565b9050919050565b7f496e76616c696420646972656374696f6e2e20313d5965732c20323d4e6f0000600082015250565b6000612279601e836118a5565b915061228482612243565b602082019050919050565b600060208201905081810360008301526122a88161226c565b9050919050565b7f416d6f756e74206d757374206265203e20300000000000000000000000000000600082015250565b60006122e56012836118a5565b91506122f0826122af565b602082019050919050565b60006020820190508181036000830152612314816122d8565b9050919050565b61232481611794565b82525050565b600060408201905061233f600083018561231b565b61234c602083018461145d565b9392505050565b7f4d61726b6574206e6f742079657420656e646564000000000000000000000000600082015250565b60006123896014836118a5565b915061239482612353565b602082019050919050565b600060208201905081810360008301526123b88161237c565b9050919050565b7f496e76616c6964206f7574636f6d652e20313d5965732c20323d4e6f00000000600082015250565b60006123f5601c836118a5565b9150612400826123bf565b602082019050919050565b60006020820190508181036000830152612424816123e8565b9050919050565b600061243682611453565b915061244183611453565b925082820390508181111561245957612458611cae565b5b92915050565b60006060820190506124746000830186611981565b612481602083018561145d565b61248e604083018461145d565b949350505050565b60006040820190506124ab600083018561176a565b6124b8602083018461145d565b9392505050565b60006060820190506124d4600083018661176a565b6124e1602083018561176a565b6124ee604083018461145d565b94935050505056fea2646970667358221220a4f3ec1fbe3f4e9f4ae1dab17cbb96c2c0aee6e598a3c9783ec55ef0fbaa3af764736f6c63430008140033",
  "linkReferences": {},
  "deployedLinkReferences": {}
}